{
  "_format": "hh-sol-artifact-1",
  "contractName": "DChainstackDollars",
  "sourceName": "contracts/DestinationToken.sol",
  "abi": [
    {
      "inputs": [
        {
          "internalType": "address",
          "name": "_token",
          "type": "address"
        },
        {
          "internalType": "address",
          "name": "_owner",
          "type": "address"
        }
      ],
      "stateMutability": "nonpayable",
      "type": "constructor"
    },
    {
      "anonymous": false,
      "inputs": [
        {
          "indexed": false,
          "internalType": "address",
          "name": "",
          "type": "address"
        },
        {
          "indexed": false,
          "internalType": "uint256",
          "name": "",
          "type": "uint256"
        }
      ],
      "name": "TokenTransfer",
      "type": "event"
    },
    {
      "inputs": [],
      "name": "owner",
      "outputs": [
        {
          "internalType": "address",
          "name": "",
          "type": "address"
        }
      ],
      "stateMutability": "view",
      "type": "function"
    },
    {
      "inputs": [
        {
          "internalType": "uint256",
          "name": "_amount",
          "type": "uint256"
        }
      ],
      "name": "swap",
      "outputs": [],
      "stateMutability": "nonpayable",
      "type": "function"
    },
    {
      "inputs": [
        {
          "internalType": "address",
          "name": "_to",
          "type": "address"
        },
        {
          "internalType": "uint256",
          "name": "_amount",
          "type": "uint256"
        }
      ],
      "name": "tokenMint",
      "outputs": [],
      "stateMutability": "nonpayable",
      "type": "function"
    },
    {
      "inputs": [
        {
          "internalType": "address",
          "name": "_owner",
          "type": "address"
        }
      ],
      "name": "upgradeOwner",
      "outputs": [],
      "stateMutability": "nonpayable",
      "type": "function"
    }
  ],
  "bytecode": "0x6080604052600436106100a05760003560e01c80638da5cb5b116100645780638da5cb5b146101365780639e281a9814610158578063d6e845fd14610178578063e2f273bd14610198578063e609348a146101b8578063eef892aa146101d8576100a7565b80631785f53c146100ac578063705d6b66146100ce578063722713f7146100e357806379886b9d1461010e57806389f1d38d14610123576100a7565b366100a757005b600080fd5b3480156100b857600080fd5b506100cc6100c73660046106d6565b6101f8565b005b3480156100da57600080fd5b506100cc61024c565b3480156100ef57600080fd5b506100f8610285565b60405161010591906108a7565b60405180910390f35b34801561011a57600080fd5b506100cc610289565b6100cc610131366004610740565b6102bf565b34801561014257600080fd5b5061014b6103bb565b604051610105919061075b565b34801561016457600080fd5b506100cc6101733660046106f7565b6103ca565b34801561018457600080fd5b506100cc610193366004610740565b610479565b3480156101a457600080fd5b506100cc6101b33660046106d6565b610528565b3480156101c457600080fd5b506100cc6101d33660046106d6565b610579565b3480156101e457600080fd5b506100cc6101f33660046106f7565b6105c5565b6000546001600160a01b0316331461022b5760405162461bcd60e51b81526004016102229061082f565b60405180910390fd5b6001600160a01b03166000908152600160205260409020805460ff19169055565b6000546001600160a01b031633146102765760405162461bcd60e51b81526004016102229061082f565b6002805460ff19166001179055565b4790565b6000546001600160a01b031633146102b35760405162461bcd60e51b81526004016102229061082f565b6002805460ff19169055565b60025460ff16156102e25760405162461bcd60e51b815260040161022290610852565b803410156103025760405162461bcd60e51b815260040161022290610788565b6000306001600160a01b03168260405161031b90610758565b60006040518083038185875af1925050503d8060008114610358576040519150601f19603f3d011682016040523d82523d6000602084013e61035d565b606091505b505090508061037e5760405162461bcd60e51b815260040161022290610880565b7ff2522bcd9bcc2134bced07aa19250e7819b22f96c91d41e352e6d616b79bcd5c33836040516103af92919061076f565b60405180910390a15050565b6000546001600160a01b031681565b6000546001600160a01b031633146103f45760405162461bcd60e51b81526004016102229061082f565b60405163a9059cbb60e01b81526001600160a01b0383169063a9059cbb90610422903390859060040161076f565b602060405180830381600087803b15801561043c57600080fd5b505af1158015610450573d6000803e3d6000fd5b505050506040513d601f19601f820116820180604052508101906104749190610720565b505050565b6000546001600160a01b031633146104a35760405162461bcd60e51b81526004016102229061082f565b600080546040516001600160a01b039091169083906104c190610758565b60006040518083038185875af1925050503d80600081146104fe576040519150601f19603f3d011682016040523d82523d6000602084013e610503565b606091505b50509050806105245760405162461bcd60e51b815260040161022290610880565b5050565b6000546001600160a01b031633146105525760405162461bcd60e51b81526004016102229061082f565b6001600160a01b03166000908152600160208190526040909120805460ff19169091179055565b6000546001600160a01b031633146105a35760405162461bcd60e51b81526004016102229061082f565b600080546001600160a01b0319166001600160a01b0392909216919091179055565b60025460ff16156105e85760405162461bcd60e51b815260040161022290610852565b3360009081526001602052604090205460ff166106175760405162461bcd60e51b815260040161022290610801565b80610620610285565b101561063e5760405162461bcd60e51b8152600401610222906107bf565b6000826001600160a01b03168260405161065790610758565b60006040518083038185875af1925050503d8060008114610694576040519150601f19603f3d011682016040523d82523d6000602084013e610699565b606091505b50509050806104745760405162461bcd60e51b815260040161022290610880565b80356001600160a01b03811681146106d157600080fd5b919050565b6000602082840312156106e7578081fd5b6106f0826106ba565b9392505050565b60008060408385031215610709578081fd5b610712836106ba565b946020939093013593505050565b600060208284031215610731578081fd5b815180151581146106f0578182fd5b600060208284031215610751578081fd5b5035919050565b90565b6001600160a01b0391909116815260200190565b6001600160a01b03929092168252602082015260400190565b60208082526017908201527f616c6c6f77616e6365206973206e6f7420656e6f756768000000000000000000604082015260600190565b60208082526022908201527f636f6e747261637420646f6e2774206861766520656e6f756768207472697665604082015261756d60f01b606082015260800190565b6020808252601490820152736e6f742061646d696e206e6f722061636365737360601b604082015260600190565b6020808252600990820152683737ba1037bbb732b960b91b604082015260600190565b6020808252601490820152731cddd85c1c1a5b99c81b9bdd08185b1b1bddd95960621b604082015260600190565b6020808252600d908201526c1c99599d5b990819985a5b1959609a1b604082015260600190565b9081526020019056fea2646970667358221220125f71789cf62df9da168202b5bfb993ef090153654439b55b4a8cb5c43b972264736f6c63430008000033",
  "linkReferences": {},
  "deployedLinkReferences": {}
}